{
  "contractName": "CryptoBirdz",
  "abi": [
    {
      "inputs": [],
      "stateMutability": "nonpayable",
      "type": "constructor"
    },
    {
      "anonymous": false,
      "inputs": [
        {
          "indexed": true,
          "internalType": "address",
          "name": "owner",
          "type": "address"
        },
        {
          "indexed": true,
          "internalType": "address",
          "name": "approved",
          "type": "address"
        },
        {
          "indexed": true,
          "internalType": "uint256",
          "name": "tokenId",
          "type": "uint256"
        }
      ],
      "name": "Approval",
      "type": "event"
    },
    {
      "anonymous": false,
      "inputs": [
        {
          "indexed": true,
          "internalType": "address",
          "name": "from",
          "type": "address"
        },
        {
          "indexed": true,
          "internalType": "address",
          "name": "to",
          "type": "address"
        },
        {
          "indexed": true,
          "internalType": "uint256",
          "name": "tokenId",
          "type": "uint256"
        }
      ],
      "name": "Transfer",
      "type": "event"
    },
    {
      "inputs": [
        {
          "internalType": "address",
          "name": "from",
          "type": "address"
        },
        {
          "internalType": "address",
          "name": "to",
          "type": "address"
        },
        {
          "internalType": "uint256",
          "name": "tokenId",
          "type": "uint256"
        }
      ],
      "name": "_transfer",
      "outputs": [],
      "stateMutability": "nonpayable",
      "type": "function"
    },
    {
      "inputs": [
        {
          "internalType": "address",
          "name": "_to",
          "type": "address"
        },
        {
          "internalType": "uint256",
          "name": "_tokenId",
          "type": "uint256"
        }
      ],
      "name": "approve",
      "outputs": [],
      "stateMutability": "nonpayable",
      "type": "function"
    },
    {
      "inputs": [
        {
          "internalType": "address",
          "name": "_owner",
          "type": "address"
        }
      ],
      "name": "balanceOf",
      "outputs": [
        {
          "internalType": "uint256",
          "name": "",
          "type": "uint256"
        }
      ],
      "stateMutability": "view",
      "type": "function"
    },
    {
      "inputs": [
        {
          "internalType": "uint256",
          "name": "",
          "type": "uint256"
        }
      ],
      "name": "kryptoBirds",
      "outputs": [
        {
          "internalType": "string",
          "name": "",
          "type": "string"
        }
      ],
      "stateMutability": "view",
      "type": "function"
    },
    {
      "inputs": [],
      "name": "name",
      "outputs": [
        {
          "internalType": "string",
          "name": "",
          "type": "string"
        }
      ],
      "stateMutability": "view",
      "type": "function"
    },
    {
      "inputs": [
        {
          "internalType": "uint256",
          "name": "_tokenId",
          "type": "uint256"
        }
      ],
      "name": "ownerOf",
      "outputs": [
        {
          "internalType": "address",
          "name": "",
          "type": "address"
        }
      ],
      "stateMutability": "view",
      "type": "function"
    },
    {
      "inputs": [],
      "name": "symbol",
      "outputs": [
        {
          "internalType": "string",
          "name": "",
          "type": "string"
        }
      ],
      "stateMutability": "view",
      "type": "function"
    },
    {
      "inputs": [
        {
          "internalType": "uint256",
          "name": "_index",
          "type": "uint256"
        }
      ],
      "name": "tokenByIndex",
      "outputs": [
        {
          "internalType": "uint256",
          "name": "",
          "type": "uint256"
        }
      ],
      "stateMutability": "view",
      "type": "function"
    },
    {
      "inputs": [
        {
          "internalType": "address",
          "name": "_owner",
          "type": "address"
        },
        {
          "internalType": "uint256",
          "name": "_index",
          "type": "uint256"
        }
      ],
      "name": "tokenOfOwnerByIndex",
      "outputs": [
        {
          "internalType": "uint256",
          "name": "",
          "type": "uint256"
        }
      ],
      "stateMutability": "view",
      "type": "function"
    },
    {
      "inputs": [],
      "name": "totalSupply",
      "outputs": [
        {
          "internalType": "uint256",
          "name": "",
          "type": "uint256"
        }
      ],
      "stateMutability": "view",
      "type": "function"
    },
    {
      "inputs": [
        {
          "internalType": "address",
          "name": "_from",
          "type": "address"
        },
        {
          "internalType": "address",
          "name": "_to",
          "type": "address"
        },
        {
          "internalType": "uint256",
          "name": "_tokenId",
          "type": "uint256"
        }
      ],
      "name": "transferFrom",
      "outputs": [],
      "stateMutability": "nonpayable",
      "type": "function"
    },
    {
      "inputs": [
        {
          "internalType": "string",
          "name": "_cryptoBird",
          "type": "string"
        }
      ],
      "name": "mint",
      "outputs": [],
      "stateMutability": "nonpayable",
      "type": "function"
    }
  ],
  "bytecode": "0x60806040523480156200001157600080fd5b506040518060400160405280600b81526020017f4b726970746f426972647a0000000000000000000000000000000000000000008152506040518060400160405280600681526020017f4b424952445a00000000000000000000000000000000000000000000000000008152508181816000908051906020019062000098929190620000bc565b508060019080519060200190620000b1929190620000bc565b5050505050620001d1565b828054620000ca906200019b565b90600052602060002090601f016020900481019282620000ee57600085556200013a565b82601f106200010957805160ff19168380011785556200013a565b828001600101855582156200013a579182015b82811115620001395782518255916020019190600101906200011c565b5b5090506200014991906200014d565b5090565b5b80821115620001685760008160009055506001016200014e565b5090565b7f4e487b7100000000000000000000000000000000000000000000000000000000600052602260045260246000fd5b60006002820490506001821680620001b457607f821691505b60208210811415620001cb57620001ca6200016c565b5b50919050565b61193a80620001e16000396000f3fe608060405234801561001057600080fd5b50600436106100b45760003560e01c80634f6ccce7116100715780634f6ccce7146101795780636352211e146101a957806370a08231146101d957806395d89b4114610209578063b20dac5f14610227578063d85d3d2714610257576100b4565b806306fdde03146100b9578063095ea7b3146100d757806318160ddd146100f357806323b872dd146101115780632f745c591461012d57806330e0789e1461015d575b600080fd5b6100c1610273565b6040516100ce9190610f5b565b60405180910390f35b6100f160048036038101906100ec9190611025565b610305565b005b6100fb6104cc565b6040516101089190611074565b60405180910390f35b61012b6004803603810190610126919061108f565b6104d9565b005b61014760048036038101906101429190611025565b610532565b6040516101549190611074565b60405180910390f35b6101776004803603810190610172919061108f565b6105e2565b005b610193600480360381019061018e91906110e2565b6105e7565b6040516101a09190611074565b60405180910390f35b6101c360048036038101906101be91906110e2565b610658565b6040516101d0919061111e565b60405180910390f35b6101f360048036038101906101ee9190611139565b61070a565b6040516102009190611074565b60405180910390f35b6102116107c2565b60405161021e9190610f5b565b60405180910390f35b610241600480360381019061023c91906110e2565b610854565b60405161024e9190610f5b565b60405180910390f35b610271600480360381019061026c919061129b565b610900565b005b60606000805461028290611313565b80601f01602080910402602001604051908101604052809291908181526020018280546102ae90611313565b80156102fb5780601f106102d0576101008083540402835291602001916102fb565b820191906000526020600020905b8154815290600101906020018083116102de57829003601f168201915b5050505050905090565b60006002600083815260200190815260200160002060009054906101000a900473ffffffffffffffffffffffffffffffffffffffff1690508073ffffffffffffffffffffffffffffffffffffffff168373ffffffffffffffffffffffffffffffffffffffff1614156103ac576040517f08c379a00000000000000000000000000000000000000000000000000000000081526004016103a390611391565b60405180910390fd5b8073ffffffffffffffffffffffffffffffffffffffff163373ffffffffffffffffffffffffffffffffffffffff161461041a576040517f08c379a0000000000000000000000000000000000000000000000000000000008152600401610411906113fd565b60405180910390fd5b826004600084815260200190815260200160002060006101000a81548173ffffffffffffffffffffffffffffffffffffffff021916908373ffffffffffffffffffffffffffffffffffffffff160217905550818373ffffffffffffffffffffffffffffffffffffffff168273ffffffffffffffffffffffffffffffffffffffff167f8c5be1e5ebec7d5bd14f71427d1e84f3dd0314c0f7b2291e5b200ac8c7c3b92560405160405180910390a4505050565b6000600580549050905090565b6104e33382610a03565b610522576040517f08c379a000000000000000000000000000000000000000000000000000000000815260040161051990611469565b60405180910390fd5b61052d8383836105e2565b505050565b600061053d8361070a565b821061057e576040517f08c379a0000000000000000000000000000000000000000000000000000000008152600401610575906114d5565b60405180910390fd5b600760008473ffffffffffffffffffffffffffffffffffffffff1673ffffffffffffffffffffffffffffffffffffffff16815260200190815260200160002082815481106105cf576105ce6114f5565b5b9060005260206000200154905092915050565b505050565b60006105f16104cc565b8210610632576040517f08c379a000000000000000000000000000000000000000000000000000000000815260040161062990611570565b60405180910390fd5b60058281548110610646576106456114f5565b5b90600052602060002001549050919050565b6000806002600084815260200190815260200160002060009054906101000a900473ffffffffffffffffffffffffffffffffffffffff169050600073ffffffffffffffffffffffffffffffffffffffff168173ffffffffffffffffffffffffffffffffffffffff161415610701576040517f08c379a00000000000000000000000000000000000000000000000000000000081526004016106f8906115dc565b60405180910390fd5b80915050919050565b60008073ffffffffffffffffffffffffffffffffffffffff168273ffffffffffffffffffffffffffffffffffffffff16141561077b576040517f08c379a0000000000000000000000000000000000000000000000000000000008152600401610772906115dc565b60405180910390fd5b600360008373ffffffffffffffffffffffffffffffffffffffff1673ffffffffffffffffffffffffffffffffffffffff168152602001908152602001600020549050919050565b6060600180546107d190611313565b80601f01602080910402602001604051908101604052809291908181526020018280546107fd90611313565b801561084a5780601f1061081f5761010080835404028352916020019161084a565b820191906000526020600020905b81548152906001019060200180831161082d57829003601f168201915b5050505050905090565b6009818154811061086457600080fd5b90600052602060002001600091509050805461087f90611313565b80601f01602080910402602001604051908101604052809291908181526020018280546108ab90611313565b80156108f85780601f106108cd576101008083540402835291602001916108f8565b820191906000526020600020905b8154815290600101906020018083116108db57829003601f168201915b505050505081565b600a816040516109109190611638565b908152602001604051809103902060009054906101000a900460ff161561096c576040517f08c379a00000000000000000000000000000000000000000000000000000000081526004016109639061169b565b60405180910390fd5b6009819080600181540180825580915050600190039060005260206000200160009091909190915090805190602001906109a7929190610e1f565b50600060016009805490506109bc91906116ea565b90506109c83382610abd565b6001600a836040516109da9190611638565b908152602001604051809103902060006101000a81548160ff0219169083151502179055505050565b6000610a0e82610ade565b610a4d576040517f08c379a0000000000000000000000000000000000000000000000000000000008152600401610a449061176a565b60405180910390fd5b60006002600084815260200190815260200160002060009054906101000a900473ffffffffffffffffffffffffffffffffffffffff1690508073ffffffffffffffffffffffffffffffffffffffff168473ffffffffffffffffffffffffffffffffffffffff161491505092915050565b610ac78282610b50565b610ad081610d12565b610ada8282610d5b565b5050565b6000806002600084815260200190815260200160002060009054906101000a900473ffffffffffffffffffffffffffffffffffffffff169050600073ffffffffffffffffffffffffffffffffffffffff168173ffffffffffffffffffffffffffffffffffffffff161415915050919050565b600073ffffffffffffffffffffffffffffffffffffffff168273ffffffffffffffffffffffffffffffffffffffff161415610bc0576040517f08c379a0000000000000000000000000000000000000000000000000000000008152600401610bb7906117fc565b60405180910390fd5b610bc981610ade565b15610c09576040517f08c379a0000000000000000000000000000000000000000000000000000000008152600401610c009061188e565b60405180910390fd5b816002600083815260200190815260200160002060006101000a81548173ffffffffffffffffffffffffffffffffffffffff021916908373ffffffffffffffffffffffffffffffffffffffff1602179055506001600360008473ffffffffffffffffffffffffffffffffffffffff1673ffffffffffffffffffffffffffffffffffffffff1681526020019081526020016000206000828254610cab91906118ae565b92505081905550808273ffffffffffffffffffffffffffffffffffffffff16600073ffffffffffffffffffffffffffffffffffffffff167fddf252ad1be2c89b69c2b068fc378daa952ba7f163c4a11628f55a4df523b3ef60405160405180910390a45050565b6005805490506006600083815260200190815260200160002081905550600581908060018154018082558091505060019003906000526020600020016000909190919091505550565b600760008373ffffffffffffffffffffffffffffffffffffffff1673ffffffffffffffffffffffffffffffffffffffff168152602001908152602001600020819080600181540180825580915050600190039060005260206000200160009091909190915055600760008373ffffffffffffffffffffffffffffffffffffffff1673ffffffffffffffffffffffffffffffffffffffff1681526020019081526020016000208054905060086000838152602001908152602001600020819055505050565b828054610e2b90611313565b90600052602060002090601f016020900481019282610e4d5760008555610e94565b82601f10610e6657805160ff1916838001178555610e94565b82800160010185558215610e94579182015b82811115610e93578251825591602001919060010190610e78565b5b509050610ea19190610ea5565b5090565b5b80821115610ebe576000816000905550600101610ea6565b5090565b600081519050919050565b600082825260208201905092915050565b60005b83811015610efc578082015181840152602081019050610ee1565b83811115610f0b576000848401525b50505050565b6000601f19601f8301169050919050565b6000610f2d82610ec2565b610f378185610ecd565b9350610f47818560208601610ede565b610f5081610f11565b840191505092915050565b60006020820190508181036000830152610f758184610f22565b905092915050565b6000604051905090565b600080fd5b600080fd5b600073ffffffffffffffffffffffffffffffffffffffff82169050919050565b6000610fbc82610f91565b9050919050565b610fcc81610fb1565b8114610fd757600080fd5b50565b600081359050610fe981610fc3565b92915050565b6000819050919050565b61100281610fef565b811461100d57600080fd5b50565b60008135905061101f81610ff9565b92915050565b6000806040838503121561103c5761103b610f87565b5b600061104a85828601610fda565b925050602061105b85828601611010565b9150509250929050565b61106e81610fef565b82525050565b60006020820190506110896000830184611065565b92915050565b6000806000606084860312156110a8576110a7610f87565b5b60006110b686828701610fda565b93505060206110c786828701610fda565b92505060406110d886828701611010565b9150509250925092565b6000602082840312156110f8576110f7610f87565b5b600061110684828501611010565b91505092915050565b61111881610fb1565b82525050565b6000602082019050611133600083018461110f565b92915050565b60006020828403121561114f5761114e610f87565b5b600061115d84828501610fda565b91505092915050565b600080fd5b600080fd5b7f4e487b7100000000000000000000000000000000000000000000000000000000600052604160045260246000fd5b6111a882610f11565b810181811067ffffffffffffffff821117156111c7576111c6611170565b5b80604052505050565b60006111da610f7d565b90506111e6828261119f565b919050565b600067ffffffffffffffff82111561120657611205611170565b5b61120f82610f11565b9050602081019050919050565b82818337600083830152505050565b600061123e611239846111eb565b6111d0565b90508281526020810184848401111561125a5761125961116b565b5b61126584828561121c565b509392505050565b600082601f83011261128257611281611166565b5b813561129284826020860161122b565b91505092915050565b6000602082840312156112b1576112b0610f87565b5b600082013567ffffffffffffffff8111156112cf576112ce610f8c565b5b6112db8482850161126d565b91505092915050565b7f4e487b7100000000000000000000000000000000000000000000000000000000600052602260045260246000fd5b6000600282049050600182168061132b57607f821691505b6020821081141561133f5761133e6112e4565b5b50919050565b7f73686f756c64206265206f776e65720000000000000000000000000000000000600082015250565b600061137b600f83610ecd565b915061138682611345565b602082019050919050565b600060208201905081810360008301526113aa8161136e565b9050919050565b7f63757272656e742063616c6c6572206973206e6f7420746865206f776e657200600082015250565b60006113e7601f83610ecd565b91506113f2826113b1565b602082019050919050565b60006020820190508181036000830152611416816113da565b9050919050565b7f697420726571756972657320746f20626520617070726f766564000000000000600082015250565b6000611453601a83610ecd565b915061145e8261141d565b602082019050919050565b6000602082019050818103600083015261148281611446565b9050919050565b7f6f776e657220696e646578206973206f7574206f6620626f756e647300000000600082015250565b60006114bf601c83610ecd565b91506114ca82611489565b602082019050919050565b600060208201905081810360008301526114ee816114b2565b9050919050565b7f4e487b7100000000000000000000000000000000000000000000000000000000600052603260045260246000fd5b7f676c6f62616c20696e646578206973206f7574206f6620626f756e6473000000600082015250565b600061155a601d83610ecd565b915061156582611524565b602082019050919050565b600060208201905081810360008301526115898161154d565b9050919050565b7f4e6f6e2d457869737420746f6b656e0000000000000000000000000000000000600082015250565b60006115c6600f83610ecd565b91506115d182611590565b602082019050919050565b600060208201905081810360008301526115f5816115b9565b9050919050565b600081905092915050565b600061161282610ec2565b61161c81856115fc565b935061162c818560208601610ede565b80840191505092915050565b60006116448284611607565b915081905092915050565b7f4b727970746f4269726420616c72656164792065786973740000000000000000600082015250565b6000611685601883610ecd565b91506116908261164f565b602082019050919050565b600060208201905081810360008301526116b481611678565b9050919050565b7f4e487b7100000000000000000000000000000000000000000000000000000000600052601160045260246000fd5b60006116f582610fef565b915061170083610fef565b925082821015611713576117126116bb565b5b828203905092915050565b7f746f6b656e20646f6573206e6f74206578697374730000000000000000000000600082015250565b6000611754601583610ecd565b915061175f8261171e565b602082019050919050565b6000602082019050818103600083015261178381611747565b9050919050565b7f455243373231204552524f523a204974206e6565647320746f206265206d696e60008201527f74656420776974682061207265616c2041646472657373000000000000000000602082015250565b60006117e6603783610ecd565b91506117f18261178a565b604082019050919050565b60006020820190508181036000830152611815816117d9565b9050919050565b7f4552433231204552524f523a20546f6b656e20616c7265616479206d696e746560008201527f6400000000000000000000000000000000000000000000000000000000000000602082015250565b6000611878602183610ecd565b91506118838261181c565b604082019050919050565b600060208201905081810360008301526118a78161186b565b9050919050565b60006118b982610fef565b91506118c483610fef565b9250827fffffffffffffffffffffffffffffffffffffffffffffffffffffffffffffffff038211156118f9576118f86116bb565b5b82820190509291505056fea26469706673582212209f6111d0ad604e82b6d1a0325cbcf0236595dd9ae35a9c069fe24b09bc6a17cf64736f6c63430008090033",
  "immutableReferences": {},
  "source": "// SPDX-License-Identifier: MIT\npragma solidity ^0.8.0;\nimport './ERC721Connector.sol';\n\ncontract CryptoBirdz is ERC721Connector {\n    // store nfts\n    string[] public kryptoBirds;\n\n    mapping(string => bool) _kryptoBirdsExist;\n\n    function mint(string memory _cryptoBird) public {\n        require(!_kryptoBirdsExist[_cryptoBird], 'KryptoBird already exist');\n         kryptoBirds.push(_cryptoBird);\n        uint _id = kryptoBirds.length -1;\n        _mint(msg.sender, _id);\n    _kryptoBirdsExist[_cryptoBird] = true;\n\n    }\n\n    constructor() ERC721Connector('KriptoBirdz', 'KBIRDZ'){\n    }\n}\n\n",
  "sourcePath": "/Users/diegoarevalo/Desktop/my projects/solidity/nft/nft-marketplace-starter/src/contracts/CryptoBirdz.sol",
  "compiler": {
    "name": "solc",
    "version": "0.8.9+commit.e5eed63a.Emscripten.clang"
  },
  "schemaVersion": "3.4.3",
  "updatedAt": "2021-11-06T00:52:00.579Z",
  "devdoc": {
    "kind": "dev",
    "methods": {
      "tokenByIndex(uint256)": {
        "details": "Throws if `_index` >= `totalSupply()`.",
        "params": {
          "_index": "A counter less than `totalSupply()`"
        },
        "returns": {
          "_0": "The token identifier for the `_index`th NFT,  (sort order not specified)"
        }
      },
      "tokenOfOwnerByIndex(address,uint256)": {
        "details": "Throws if `_index` >= `balanceOf(_owner)` or if  `_owner` is the zero address, representing invalid NFTs.",
        "params": {
          "_index": "A counter less than `balanceOf(_owner)`",
          "_owner": "An address where we are interested in NFTs owned by them"
        },
        "returns": {
          "_0": "The token identifier for the `_index`th NFT assigned to `_owner`,   (sort order not specified)"
        }
      },
      "transferFrom(address,address,uint256)": {
        "details": "Throws unless `msg.sender` is the current owner, an authorized  operator, or the approved address for this NFT. Throws if `_from` is  not the current owner. Throws if `_to` is the zero address. Throws if  `_tokenId` is not a valid NFT.",
        "params": {
          "_from": "The current owner of the NFT",
          "_to": "The new owner",
          "_tokenId": "The NFT to transfer"
        }
      }
    },
    "version": 1
  },
  "userdoc": {
    "kind": "user",
    "methods": {
      "tokenByIndex(uint256)": {
        "notice": "Enumerate valid NFTs"
      },
      "tokenOfOwnerByIndex(address,uint256)": {
        "notice": "Enumerate NFTs assigned to an owner"
      },
      "transferFrom(address,address,uint256)": {
        "notice": "Transfer ownership of an NFT -- THE CALLER IS RESPONSIBLE  TO CONFIRM THAT `_to` IS CAPABLE OF RECEIVING NFTS OR ELSE  THEY MAY BE PERMANENTLY LOST"
      }
    },
    "version": 1
  }
}