{
  "contractName": "ERC721",
  "abi": [
    {
      "anonymous": false,
      "inputs": [
        {
          "indexed": true,
          "internalType": "address",
          "name": "owner",
          "type": "address"
        },
        {
          "indexed": true,
          "internalType": "address",
          "name": "approved",
          "type": "address"
        },
        {
          "indexed": true,
          "internalType": "uint256",
          "name": "tokenId",
          "type": "uint256"
        }
      ],
      "name": "Approval",
      "type": "event"
    },
    {
      "anonymous": false,
      "inputs": [
        {
          "indexed": true,
          "internalType": "address",
          "name": "from",
          "type": "address"
        },
        {
          "indexed": true,
          "internalType": "address",
          "name": "to",
          "type": "address"
        },
        {
          "indexed": true,
          "internalType": "uint256",
          "name": "tokenId",
          "type": "uint256"
        }
      ],
      "name": "Transfer",
      "type": "event"
    },
    {
      "inputs": [
        {
          "internalType": "address",
          "name": "_owner",
          "type": "address"
        }
      ],
      "name": "balanceOf",
      "outputs": [
        {
          "internalType": "uint256",
          "name": "",
          "type": "uint256"
        }
      ],
      "stateMutability": "view",
      "type": "function"
    },
    {
      "inputs": [
        {
          "internalType": "uint256",
          "name": "_tokenId",
          "type": "uint256"
        }
      ],
      "name": "ownerOf",
      "outputs": [
        {
          "internalType": "address",
          "name": "",
          "type": "address"
        }
      ],
      "stateMutability": "view",
      "type": "function"
    },
    {
      "inputs": [
        {
          "internalType": "address",
          "name": "_from",
          "type": "address"
        },
        {
          "internalType": "address",
          "name": "_to",
          "type": "address"
        },
        {
          "internalType": "uint256",
          "name": "_tokenId",
          "type": "uint256"
        }
      ],
      "name": "transferFrom",
      "outputs": [],
      "stateMutability": "nonpayable",
      "type": "function"
    },
    {
      "inputs": [
        {
          "internalType": "address",
          "name": "from",
          "type": "address"
        },
        {
          "internalType": "address",
          "name": "to",
          "type": "address"
        },
        {
          "internalType": "uint256",
          "name": "tokenId",
          "type": "uint256"
        }
      ],
      "name": "_transfer",
      "outputs": [],
      "stateMutability": "nonpayable",
      "type": "function"
    },
    {
      "inputs": [
        {
          "internalType": "address",
          "name": "_to",
          "type": "address"
        },
        {
          "internalType": "uint256",
          "name": "_tokenId",
          "type": "uint256"
        }
      ],
      "name": "approve",
      "outputs": [],
      "stateMutability": "nonpayable",
      "type": "function"
    }
  ],
  "bytecode": "0x608060405234801561001057600080fd5b50610a04806100206000396000f3fe608060405234801561001057600080fd5b50600436106100575760003560e01c8063095ea7b31461005c57806323b872dd1461007857806330e0789e146100945780636352211e146100b057806370a08231146100e0575b600080fd5b61007660048036038101906100719190610660565b610110565b005b610092600480360381019061008d91906106a0565b6102d6565b005b6100ae60048036038101906100a991906106a0565b61032f565b005b6100ca60048036038101906100c591906106f3565b610334565b6040516100d7919061072f565b60405180910390f35b6100fa60048036038101906100f5919061074a565b6103e5565b6040516101079190610786565b60405180910390f35b600080600083815260200190815260200160002060009054906101000a900473ffffffffffffffffffffffffffffffffffffffff1690508073ffffffffffffffffffffffffffffffffffffffff168373ffffffffffffffffffffffffffffffffffffffff1614156101b6576040517f08c379a00000000000000000000000000000000000000000000000000000000081526004016101ad906107fe565b60405180910390fd5b8073ffffffffffffffffffffffffffffffffffffffff163373ffffffffffffffffffffffffffffffffffffffff1614610224576040517f08c379a000000000000000000000000000000000000000000000000000000000815260040161021b9061086a565b60405180910390fd5b826002600084815260200190815260200160002060006101000a81548173ffffffffffffffffffffffffffffffffffffffff021916908373ffffffffffffffffffffffffffffffffffffffff160217905550818373ffffffffffffffffffffffffffffffffffffffff168273ffffffffffffffffffffffffffffffffffffffff167f8c5be1e5ebec7d5bd14f71427d1e84f3dd0314c0f7b2291e5b200ac8c7c3b92560405160405180910390a4505050565b6102e0338261049d565b61031f576040517f08c379a0000000000000000000000000000000000000000000000000000000008152600401610316906108d6565b60405180910390fd5b61032a83838361032f565b505050565b505050565b60008060008084815260200190815260200160002060009054906101000a900473ffffffffffffffffffffffffffffffffffffffff169050600073ffffffffffffffffffffffffffffffffffffffff168173ffffffffffffffffffffffffffffffffffffffff1614156103dc576040517f08c379a00000000000000000000000000000000000000000000000000000000081526004016103d390610942565b60405180910390fd5b80915050919050565b60008073ffffffffffffffffffffffffffffffffffffffff168273ffffffffffffffffffffffffffffffffffffffff161415610456576040517f08c379a000000000000000000000000000000000000000000000000000000000815260040161044d90610942565b60405180910390fd5b600160008373ffffffffffffffffffffffffffffffffffffffff1673ffffffffffffffffffffffffffffffffffffffff168152602001908152602001600020549050919050565b60006104a882610556565b6104e7576040517f08c379a00000000000000000000000000000000000000000000000000000000081526004016104de906109ae565b60405180910390fd5b600080600084815260200190815260200160002060009054906101000a900473ffffffffffffffffffffffffffffffffffffffff1690508073ffffffffffffffffffffffffffffffffffffffff168473ffffffffffffffffffffffffffffffffffffffff161491505092915050565b60008060008084815260200190815260200160002060009054906101000a900473ffffffffffffffffffffffffffffffffffffffff169050600073ffffffffffffffffffffffffffffffffffffffff168173ffffffffffffffffffffffffffffffffffffffff161415915050919050565b600080fd5b600073ffffffffffffffffffffffffffffffffffffffff82169050919050565b60006105f7826105cc565b9050919050565b610607816105ec565b811461061257600080fd5b50565b600081359050610624816105fe565b92915050565b6000819050919050565b61063d8161062a565b811461064857600080fd5b50565b60008135905061065a81610634565b92915050565b60008060408385031215610677576106766105c7565b5b600061068585828601610615565b92505060206106968582860161064b565b9150509250929050565b6000806000606084860312156106b9576106b86105c7565b5b60006106c786828701610615565b93505060206106d886828701610615565b92505060406106e98682870161064b565b9150509250925092565b600060208284031215610709576107086105c7565b5b60006107178482850161064b565b91505092915050565b610729816105ec565b82525050565b60006020820190506107446000830184610720565b92915050565b6000602082840312156107605761075f6105c7565b5b600061076e84828501610615565b91505092915050565b6107808161062a565b82525050565b600060208201905061079b6000830184610777565b92915050565b600082825260208201905092915050565b7f73686f756c64206265206f776e65720000000000000000000000000000000000600082015250565b60006107e8600f836107a1565b91506107f3826107b2565b602082019050919050565b60006020820190508181036000830152610817816107db565b9050919050565b7f63757272656e742063616c6c6572206973206e6f7420746865206f776e657200600082015250565b6000610854601f836107a1565b915061085f8261081e565b602082019050919050565b6000602082019050818103600083015261088381610847565b9050919050565b7f697420726571756972657320746f20626520617070726f766564000000000000600082015250565b60006108c0601a836107a1565b91506108cb8261088a565b602082019050919050565b600060208201905081810360008301526108ef816108b3565b9050919050565b7f4e6f6e2d457869737420746f6b656e0000000000000000000000000000000000600082015250565b600061092c600f836107a1565b9150610937826108f6565b602082019050919050565b6000602082019050818103600083015261095b8161091f565b9050919050565b7f746f6b656e20646f6573206e6f74206578697374730000000000000000000000600082015250565b60006109986015836107a1565b91506109a382610962565b602082019050919050565b600060208201905081810360008301526109c78161098b565b905091905056fea26469706673582212200998db34ab8770663df9f3fa53cfc4f44becb64d0e00b19bcd62a41150418e4c64736f6c63430008090033",
  "immutableReferences": {},
  "source": "// SPDX-License-Identifier: MIT\npragma solidity ^0.8.0;\n// NFT to point an address\n// keep track token ids\n// keep track token owners addresses to token ids\n// keep track how many token an owner has\n// create an events that emits  transfer logs - contract address where it is being minted to, the id\ncontract ERC721 {\n     event Transfer(address indexed from, address indexed to, uint256 indexed tokenId);\n\n    event Approval(address indexed owner, address indexed approved, uint256 indexed tokenId);\n    // mapping from token id to owners\n    mapping(uint256 => address) private _tokenOwner;\n\n    // mapping from owner to number of owned token\n    mapping(address => uint256) private _OwnedTokenCount;\n\n    mapping(uint256 => address) private _tokenApprovals;\n\n\n\n    function balanceOf(address _owner) public view returns(uint256){\n        require(_owner != address (0), 'Non-Exist token');\n        return _OwnedTokenCount[_owner];\n    }\n\n    // @notice finding the owner of nft\n    // @dev nft assign to zero address is considered invalid\n    // @param _tokenId is the identifier of a nft\n    // @return the address of the owner of a nft\n    function ownerOf(uint256 _tokenId) external view returns(address){\n       address owner = _tokenOwner[_tokenId];\n        require(owner != address (0), 'Non-Exist token');\n        return owner;\n    }\n\n    function _exists(uint256 tokenId) internal view returns(bool){\n        // checking the mapping of address\n     address owner = _tokenOwner[tokenId];\n        // return true when a owner is valid\n        return owner != address(0);\n    }\n\n    function _mint(address to, uint256 tokenId) internal virtual {\n        // the address should not be zero\n        require(to != address (0), 'ERC721 ERROR: It needs to be minted with a real Address');\n        // check if the address already exists\n        require(!_exists(tokenId), 'ERC21 ERROR: Token already minted');\n    _tokenOwner[tokenId] = to;\n    _OwnedTokenCount[to] +=1;\n\n        emit Transfer(address(0), to, tokenId);\n    }\n\n    /// @notice Transfer ownership of an NFT -- THE CALLER IS RESPONSIBLE\n    ///  TO CONFIRM THAT `_to` IS CAPABLE OF RECEIVING NFTS OR ELSE\n    ///  THEY MAY BE PERMANENTLY LOST\n    /// @dev Throws unless `msg.sender` is the current owner, an authorized\n    ///  operator, or the approved address for this NFT. Throws if `_from` is\n    ///  not the current owner. Throws if `_to` is the zero address. Throws if\n    ///  `_tokenId` is not a valid NFT.\n    /// @param _from The current owner of the NFT\n    /// @param _to The new owner\n    /// @param _tokenId The NFT to transfer\n    function transferFrom(address _from, address _to, uint256 _tokenId) public virtual {\n        require(isApprovedOrOwner(msg.sender,  _tokenId), 'it requires to be approved');\n      _transfer(_from, _to, _tokenId);\n    }\n\n    function _transfer(address from, address to, uint256 tokenId) public {\n\n    }\n\n    // it requires person approves is the owner, approve the address\n\n    function approve(address _to, uint256 _tokenId) public {\n        // address owner = ownerOf(_tokenId);\n        address owner = _tokenOwner[_tokenId];\n        require(_to!= owner, \"should be owner\");\n        require(msg.sender == owner, 'current caller is not the owner');\n        _tokenApprovals[_tokenId] = _to;\n        emit Approval(owner, _to, _tokenId);\n    }\n\n    function isApprovedOrOwner(address spender, uint256 _tokenId) internal view returns(bool){\n        require(_exists(_tokenId), 'token does not exists');\n        //address owner = ownerOf(_tokenId);\n        address owner = _tokenOwner[_tokenId];\n        return(spender == owner);\n    }\n\n\n\n}",
  "sourcePath": "/Users/diegoarevalo/Desktop/my projects/solidity/nft/nft-marketplace-starter/src/contracts/ERC721.sol",
  "compiler": {
    "name": "solc",
    "version": "0.8.9+commit.e5eed63a.Emscripten.clang"
  },
  "schemaVersion": "3.4.3",
  "updatedAt": "2021-11-06T00:52:00.583Z",
  "devdoc": {
    "kind": "dev",
    "methods": {
      "transferFrom(address,address,uint256)": {
        "details": "Throws unless `msg.sender` is the current owner, an authorized  operator, or the approved address for this NFT. Throws if `_from` is  not the current owner. Throws if `_to` is the zero address. Throws if  `_tokenId` is not a valid NFT.",
        "params": {
          "_from": "The current owner of the NFT",
          "_to": "The new owner",
          "_tokenId": "The NFT to transfer"
        }
      }
    },
    "version": 1
  },
  "userdoc": {
    "kind": "user",
    "methods": {
      "transferFrom(address,address,uint256)": {
        "notice": "Transfer ownership of an NFT -- THE CALLER IS RESPONSIBLE  TO CONFIRM THAT `_to` IS CAPABLE OF RECEIVING NFTS OR ELSE  THEY MAY BE PERMANENTLY LOST"
      }
    },
    "version": 1
  }
}